S01000004D61737465725F422E7372656307
S11300000C942A000C94860A0C94B20A0C944700AF
S11300100C9447000C94DC0A0C9447000C944700A1
S11300200C9447000C9447000C946F0A0C944700FE
S11300300C9447000C9447000C9447000C94470020
S11300400C9447000C9447000C9447000C94470010
S11300500C94470011241FBECFE5D8E0DEBFCDBF0E
S113006012E0A0E6B0E0EEE9FCE102C005900D92DA
S1130070A438B107D9F712E0A4E8B2E001C01D9298
S1130080A838B107E1F70E94A6040C944D0E0C9415
S11300900000843409F471C0853448F4823499F141
S11300A0833408F04DC0813409F083C00FC0823618
S11300B051F1833620F4813609F07BC007C08336C2
S11300C009F43EC0843609F074C057C0413069F465
S11300D02AB381E090E0AC0102C0440F551F6A9539
S11300E0E2F7BA01622B6ABB08952AB381E090E07B
S11300F0AC0102C0440F551F6A95E2F7BA0160953E
S113010062236ABB0895413069F427B381E090E02B
S1130110AC0102C0440F551F6A95E2F7BA01622B85
S113012067BB089527B381E090E0AC0102C0440F9F
S1130130551F6A95E2F7BA016095622367BB08957B
S1130140413069F424B381E090E0AC0102C0440F73
S1130150551F6A95E2F7BA01622B64BB089524B374
S113016081E090E0AC0102C0440F551F6A95E2F7AC
S1130170BA016095622364BB0895413069F421B3E8
S113018081E090E0AC0102C0440F551F6A95E2F78C
S1130190BA01622B61BB089521B381E090E0AC0108
S11301A002C0440F551F6A95E2F7BA0160956223B5
S11301B061BB0895843409F471C0853448F48234F1
S11301C099F1833408F04DC0813409F083C00FC025
S11301D0823651F1833620F4813609F07BC007C0A2
S11301E0833609F43EC0843609F074C057C04130E8
S11301F069F42BB381E090E0AC0102C0440F551FB9
S11302006A95E2F7BA01622B6BBB08952BB381E0C8
S113021090E0AC0102C0440F551F6A95E2F7BA01A1
S1130220609562236BBB0895413069F428B381E083
S113023090E0AC0102C0440F551F6A95E2F7BA0181
S1130240622B68BB089528B381E090E0AC0102C042
S1130250440F551F6A95E2F7BA016095622368BBA3
S11302600895413069F425B381E090E0AC0102C007
S1130270440F551F6A95E2F7BA01622B65BB0895D6
S113028025B381E090E0AC0102C0440F551F6A958C
S1130290E2F7BA016095622365BB0895413069F4C1
S11302A022B381E090E0AC0102C0440F551F6A956F
S11302B0E2F7BA01622B62BB089522B381E090E0B9
S11302C0AC0102C0440F551F6A95E2F7BA0160956C
S11302D0622362BB0895843409F44EC0853440F42B
S11302E0823431F18334B0F5813409F057C00EC043
S11302F08236F1F0833620F4813609F04FC006C00F
S1130300833641F1843609F049C036C029B381E00F
S113031090E0062E02C0880F991F0A94E2F730E09D
S11303208223932302C0959587956A95E2F70895F1
S113033026B381E090E0062E02C0880F991F0A942C
S1130340E2F730E08223932302C0959587956A955E
S1130350E2F7089523B381E090E0062E02C0880FEF
S1130360991F0A94E2F730E08223932302C0959503
S113037087956A95E2F7089520B381E090E0062E10
S113038002C0880F991F0A94E2F730E08223932376
S113039002C0959587956A95E2F7089580E00895DF
S11303A0843409F43DC0853440F48234F9F0833454
S11303B050F5813409F040C00CC08236B9F0833660
S11303C018F48136C9F505C08336E9F08436A1F501
S11303D027C02BB381E090E0AC0102C0440F551F4D
S11303E06A95E2F7BA0162276BBB089528B381E0EE
S11303F090E0AC0102C0440F551F6A95E2F7BA01C0
S1130400622768BB089525B381E090E0AC0102C087
S1130410440F551F6A95E2F7BA01622765BB089538
S113042022B381E090E0AC0102C0440F551F6A95ED
S1130430E2F7BA01622762BB08958434D9F08534A7
S113044038F4823499F0833498F48134A1F40CC0E4
S1130450823661F0833618F4813669F405C0833638
S113046039F0843641F406C06ABB089567BB089529
S113047064BB089561BB08958434D9F0853438F49D
S1130480823499F0833498F48134A1F40CC0823618
S113049061F0833618F4813669F405C0833639F087
S11304A0843641F406C06BBB089568BB089565BBF0
S11304B0089562BB08958434D9F0853438F48234C5
S11304C099F0833498F48134A9F40CC0823661F035
S11304D0833618F4813671F405C0833639F08436D6
S11304E049F406C089B3089586B3089583B3089583
S11304F080B3089580E00895843409F471C085348C
S113050048F4823499F1833408F04DC0813409F001
S113051083C00FC0823651F1833620F4813609F04E
S11305207BC007C0833609F43EC0843609F074C02A
S113053057C0413069F42BB381E090E0AC0102C0B4
S1130540440F551F6A95E2F7BA01622B6BBB0895FD
S11305502BB381E090E0AC0102C0440F551F6A95B3
S1130560E2F7BA01609562236BBB0895413069F4E8
S113057028B381E090E0AC0102C0440F551F6A9596
S1130580E2F7BA01622B68BB089528B381E090E0DA
S1130590AC0102C0440F551F6A95E2F7BA01609599
S11305A0622368BB0895413069F425B381E090E08B
S11305B0AC0102C0440F551F6A95E2F7BA01622BE1
S11305C065BB089525B381E090E0AC0102C0440FFF
S11305D0551F6A95E2F7BA016095622365BB0895D9
S11305E0413069F422B381E090E0AC0102C0440FD1
S11305F0551F6A95E2F7BA01622B62BB089522B3D4
S113060081E090E0AC0102C0440F551F6A95E2F707
S1130610BA016095622362BB08956F70843451F10E
S1130620853438F48234C1F08334E8F4813441F5FC
S11306300CC0823689F0833618F4813609F505C07A
S1130640833689F08436E1F415C08BB3807F8BBB8D
S11306508BB3682B6BBB089588B3807F88BB88B34A
S1130660682B68BB089585B3807F85BB85B3682BF1
S113067065BB089582B3807F82BB82B3682B62BB63
S113068008956295607F843451F1853438F482345E
S1130690C1F08334E8F4813441F50CC0823689F02A
S11306A0833618F4813609F505C0833689F084361B
S11306B0E1F415C08BB38F708BBB8BB3682B6BBB12
S11306C0089588B38F7088BB88B3682B68BB08957E
S11306D085B38F7085BB85B3682B65BB089582B3E2
S11306E08F7082BB82B3682B62BB08958EBB9FBBA5
S11306F06DBBE29AE19AE299FECF08958EBB9FBB4F
S1130700E09A8DB30895789484E462E040E00E9416
S1130710490085B7816085BF85B7826085BF8BB787
S113072080648BBF0895789484E463E040E00E9481
S1130730490085B7816085BF85B7826085BF8BB767
S113074080688BBF089582E460E041E00E94DA0093
S11307508FE99FE00197F1F700C0000082E460E0B8
S113076040E00E94DA008FE99FE00197F1F700C0B2
S113077000000895CF93C82F682F62956F7081E4AD
S11307800E94410382E461E040E00E94DA000E949A
S1130790A30381E46C2F0E94410382E461E040E002
S11307A00E94DA000E94A3038FEC97E00197F1F70F
S11307B000C00000CF9108958FEF91EEA4E0815026
S11307C09040A040E1F700C0000081E464E041E013
S11307D00E94490081E465E041E00E94490081E40F
S11307E066E041E00E94490081E467E041E00E9444
S11307F0490082E460E041E00E94490082E462E052
S113080041E00E94490082E461E041E00E94490025
S113081082E462E040E00E94DA0082E00E94BA03CF
S1130820AFE1BEE41197F1F700C0000088E20E9436
S1130830BA038FEC97E00197F1F700C000008EE057
S11308400E94BA03AFECB7E01197F1F700C00000C3
S113085081E00E94BA038FE19EE40197F1F700C0A2
S1130860000086E00E94BA03AFECB7E01197F1F7FD
S113087000C000000895CF93C82F682F62956F7051
S113088081E40E94410382E461E041E00E94DA00D5
S11308900E94A30381E46C2F0E94410382E461E07F
S11308A041E00E94DA000E94A3038FEC97E00197D5
S11308B0F1F700C00000CF910895CF93DF93EC01CE
S11308C08881882331F021960E943B0489918823F2
S11308D0D9F7DF91CF91089581E00E94BA038FE1A7
S11308E09EE40197F1F700C000000895282F2150DD
S11308F0223070F4613170F4662371F0813019F4A0
S1130900962F91580AC0823041F4962F915405C015
S113091090E803C090E801C090E8892F0E94BA03D0
S11309208FEC97E00197F1F700C00000089541E0D3
S11309300E944900089541E00E94DA00089540E0D1
S11309400E94DA0008950E94D0010895CF93DF93A6
S1130950CDB7DEB72B970FB6F894DEBF0FBECDBF71
S11309600E94DC030E940F0C60E875E280E090E0D6
S11309700E94A20C0E9483030E94930360E070E033
S1130980CB010E94750C83E460E00E94970483E429
S113099061E00E94970483E462E00E94970483E488
S11309A063E00E94970483E464E00E9497048FEF5D
S11309B089838A838B838C8380E690E00E945D0424
S11309C082E061E00E94760481E790E00E945D0489
S11309D08FEF94E3ACE081509040A040E1F700C079
S11309E000000E946C0480E290E00E947E038F3F2E
S11309F009F0BBC080E390E00E947E038F3F09F0C2
S1130A00B4C08DE790E00E945D0482E061E00E9442
S1130A10760487E890E00E945D048FEF94E3ACE0F5
S1130A2081509040A040E1F700C000000E946C0497
S1130A3082E990E00E945D0482E061E00E94760415
S1130A4081EA90E00E945D0401E210E0FF24FA9440
S1130A50F09226020E94C90C809326028F3FD1F3A4
S1130A600E943B048FE798E3A1E081509040A040AE
S1130A70E1F700C00000602F655182E00E94760417
S1130A808AE20E943B04C801609126020E94760318
S1130A90AFE5BAEE1197F1F700C000000F5F1F4FEA
S1130AA005321105A9F680E290E060E00E94760329
S1130AB0EFE5FAEE3197F1F700C000000E946C04F4
S1130AC08DEA90E00E945D0482E061E00E94760479
S1130AD08CEB90E00E945D0401E310E0FF24FA94A3
S1130AE0F09226020E94C90C809326028F3FD1F314
S1130AF00E943B048FE798E3A1E081509040A0401E
S1130B00E1F700C00000602F655282E00E94760485
S1130B108AE20E943B04C801609126020E94760387
S1130B20AFE5BAEE1197F1F700C000000F5F1F4F59
S1130B3005331105A9F680E390E060E00E94760396
S1130B40EFE5FAEE3197F1F700C000000E946C0463
S1130B5088EC90E00E945D048FEF94E3ACE0815058
S1130B609040A040E1F700C0000019869FEF9B87EA
S1130B70AFEFAA87EE240F2EF3E0DF2EF02D1886B8
S1130B801F82EBE2F1E0ED83FE830F2EF6E32F2EBE
S1130B90F1E03F2EF02D0F2EF1E58F2EF1E09F2E88
S1130BA0F02D0F2EF0E66F2EF1E07F2EF02D02C017
S1130BB0ED2CDC2C8FEF809326028091850281300E
S1130BC041F501E00E94400C009325021092850239
S1130BD0109287021092860283E4602F0E949F0481
S1130BE083E462E00E949F040E946C0487ED90E01D
S1130BF00E945D048FEF94E3ACE081509040A040EC
S1130C00E1F700C00000809185028130D9F21F8293
S1130C1004C09F81992309F051C40F2EFDE8AF2E23
S1130C20F1E0BF2EF02D0F2EFCEB4F2EF0E05F2EE7
S1130C30F02DA885A13031F50E946C0487EE90E078
S1130C400E945D0482E061E00E94760485EF90E0FA
S1130C500E945D0483E460E00E949B048FEF91E1B5
S1130C60AAE781509040A040E1F700C0000083E46F
S1130C7060E00E949F04EE240F2EF3E0DF2EF02D9F
S1130C8018861F828FEF809326020E946C0480E0F6
S1130C9091E00E945D0482E061E00E9476048DE0B0
S1130CA091E00E945D040E94C90C809326028F3F4C
S1130CB0D1F3982F9153923098F00E946C048EE1F6
S1130CC091E00E945D048FEF94E3ACE0815090408A
S1130CD0A040E1F700C000008FEF8093260260C1BE
S1130CE0813341F0823309F05BC19F81923009F076
S1130CF0AFC0E4C3AF81A13009F4E0C30F2EFCE020
S1130D00CF2EF02D0E946C048D819E810E945D0483
S1130D1082E061E00E947604C1010E945D048E01BC
S1130D200F5F1F4FFC2C0E94C90CF80180838F3F7A
S1130D30D1F30E943B048FE798E3A1E081509040F7
S1130D40A040E1F700C0000082E06F2D0E9476040D
S1130D508AE20E943B04F3940F5F1F4F90E1F9165F
S1130D6011F781E290E00E947E0399818917B9F519
S1130D7082E290E00E947E039A81891781F583E2E2
S1130D8090E00E947E039B81891749F584E290E0FC
S1130D900E947E039C81891711F50E946C0482E4F1
S1130DA091E00E945D0482E061E00E9476048BE29F
S1130DB091E00E945D0483E461E00E949B048FEF54
S1130DC094E3ACE081509040A040E1F700C0000003
S1130DD00E944A0C0E946C0491E09F836FC3DA94D2
S1130DE0E3940E946C04C4010E945D0482E061E00B
S1130DF00E947604C3010E945D048D2D805D0E94D3
S1130E003B048FEF94E3ACE081509040A040E1F7C5
S1130E1000C0000092E09E1508F074CF0E946C049C
S1130E208FE691E00E945D0482E061E00E94760416
S1130E3080E891E00E945D048FEF94E3ACE0815080
S1130E409040A040E1F700C0000091E09887A8C05E
S1130E500F2EFCE0CF2EF02D0E946C04C5010E94E1
S1130E605D0482E061E00E947604C2010E945D0498
S1130E708E010F5F1F4FFC2C0E94C90CD8018C936C
S1130E808F3FD1F30E943B048FE798E3A1E08150A8
S1130E909040A040E1F700C0000082E06F2D0E9466
S1130EA076048AE20E943B04F3940F5F1F4F90E1A3
S1130EB0F91611F781E390E00E947E039981891766
S1130EC0B9F582E390E00E947E039A81891781F547
S1130ED083E390E00E947E039B81891749F584E3B4
S1130EE090E00E947E039C81891711F50E946C0496
S1130EF082E491E00E945D0482E061E00E94760455
S1130F008DE891E00E945D0483E462E00E949B040A
S1130F108FEF94E3ACE081509040A040E1F700C033
S1130F2000000E944A0C0E946C0492E09F83C6C297
S1130F30DA94E3940E946C04C4010E945D0482E08C
S1130F4061E00E947604C3010E945D048D2D805DE2
S1130F500E943B048FEF94E3ACE081509040A040AA
S1130F60E1F700C0000092E09E1508F075CF0E94E2
S1130F706C048FE691E00E945D0482E061E00E94CF
S1130F80760480E891E00E945D048FEF94E3ACE086
S1130F9081509040A040E1F700C0000091E09887A4
S1130FA0AF81AA2309F445CE89C2853009F48FC1E3
S1130FB0863070F4823009F4AFC0833018F4813085
S1130FC0A1F720C0833009F46CC1843071F774C177
S1130FD0883009F415C1893030F4863009F482C1AF
S1130FE0873019F78AC1893009F492C18A30E9F649
S1130FF0B985BB2309F05EC280918502882309F478
S113100092C158C28FEF809326020F2EF8EAEF2E7A
S1131010F1E0FF2EF02D0F2EFEE1AF2EF1E0BF2EFA
S1131020F02D16E00E946C0488E991E00E945D04B2
S113103082E061E00E947604013021F4C7010E943D
S11310405D0406C0023021F487EB91E00E945D0448
S11310508091860290918702E3E0883E9E0710F01B
S1131060013051F08091860290918702F3E0883E2E
S11310709F0730F0023021F481E08093850206C09E
S11310800E94C90C809326028F3F11F38FEF90E7E3
S1131090A2E081509040A040E1F700C000008091A0
S11310A02602813321F493E09093250229C08233F0
S11310B021F4A4E0A093250223C0833321F4B5E0F6
S11310C0B09325021DC0843359F4023019F41093EF
S11310D0250216C0013021F482E08093250210C05D
S11310E08F3FA1F00E946C04C5010E945D048FEF44
S11310F094E3ACE081509040A040E1F700C00000D0
S1131100809126028153843008F4E1C180918502E4
S1131110882309F487CFDBC11FEF0F2EFEE1EF2EEA
S1131120F1E0FF2EF02DAA246894A3F81093260270
S11311300E946C0487EC91E00E945D0482E061E00F
S11311400E94760484ED91E00E945D048091860201
S113115090918702A3E0883E9A0710F0013051F085
S11311608091860290918702B3E0883E9B0730F01D
S1131170023021F481E08093850206C00E94C90CEC
S1131180809326028F3F11F38FE79AE1A6E0815006
S11311909040A040E1F700C0000080912602813316
S11311A021F496E0909325021FC0823321F4A7E036
S11311B0A093250219C0833319F4A092250214C008
S11311C0843321F481E0809325020EC00E946C04D4
S11311D0C7010E945D048FEF94E3ACE0815090401E
S11311E0A040E1F700C000008091260281538430C2
S11311F008F46DC180918502882309F497CF67C1F3
S11312008FEF809326020E946C04C2010E945D0449
S113121082E061E00E94760488EF91E00E945D0420
S11312208091860290918702A3E0883E9A0730F06D
S1131230013021F481E08093850206C00E94C90C2C
S1131240809326028F3F61F38FE79AE1A6E08150F5
S11312509040A040E1F700C0000080912602813355
S113126021F48AE08093250232C1823321F489E09B
S1131270809325022CC1833321F482E080932502DC
S113128026C10E946C048EE191E00E945D048FEF00
S113129094E3ACE081509040A040E1F700C000002E
S11312A016C18FEF8093260283E0602F0E94180BF3
S11312B081E0809325020BC18FEF8093260284E0A6
S11312C0602F0E94180B81E08093250200C18FEFEC
S11312D08093260285E0602F0E94180B81E08093A2
S11312E02502F5C08FEF8093260286E0602F0E94CE
S11312F0180B81E080932502EAC08FEF80932602C9
S113130087E0602F0E94180B82E080932502DFC0E3
S11313108FEF8093260289E0602F0E94180B88E0EB
S113132080932502D4C01FEF0F2EFEE1EF2EF1E0D3
S1131330FF2EF02D109326020E946C0488E092E0A8
S11313400E945D048FED0E943B0483E40E943B04F1
S113135081E06BE00E94760480918602909187027E
S1131360A3E0883E9A0730F0013021F481E08093B5
S1131370850206C00E94C90C809326028F3F61F348
S11313808FE79AE1A6E081509040A040E1F700C0C9
S1131390000080918502813009F48CC0809126027E
S11313A0982F90539A3078F00E946C04C7010E94E1
S11313B05D048FEF94E3ACE081509040A040E1F7EE
S11313C000C0000008C00E943B04809126028053A4
S11313D08B87109326028091860290918702A3E066
S11313E0883E9A0730F0013021F481E08093850231
S11313F006C00E94C90C809326028F3F61F38FE7D9
S11314009AE1A6E081509040A040E1F700C00000BE
S113141080918502813009F44DC080912602982F75
S113142090539A3078F00E946C04C7010E945D04C6
S11314308FEF94E3ACE081509040A040E1F700C00E
S1131440000008C00E943B048091260280538A87D2
S1131450109326028B85880F982F990F990F890F67
S1131460AA84A80E80E40E942E0C8FEF91EEA4E0D3
S113147081509040A040E1F700C000008A2D0E94F6
S11314802E0C0E946C0485E192E00E945D048FEFB3
S113149094E3ACE081509040A040E1F700C000002C
S11314A0AA2039F480918502882309F443CFA986C0
S11314B001C0A98688E08093250209C00F2EF6EEAC
S11314C04F2EF1E05F2EF02D0F81CD2CDE2C80917C
S11314D0250290918502913009F46ACB66CD1F9262
S11314E00F920FB60F9211248F939F9380918602CF
S11314F090918702019690938702809386029F9130
S11315008F910F900FBE0F901F9018951F920F92FE
S11315100FB60F9211242F933F934F935F936F93C2
S11315207F938F939F93AF93BF93EF93FF9383E442
S113153063E00E949B0483E464E00E949B040E9495
S1131540600CFF91EF91BF91AF919F918F917F912B
S11315506F915F914F913F912F910F900FBE0F901C
S11315601F9018951F920F920FB60F9211242F936C
S11315703F934F935F936F937F938F939F93AF9317
S1131580BF93EF93FF9360E070E084EB92E40E94DA
S1131590750C0E94600CFF91EF91BF91AF919F91E8
S11315A08F917F916F915F914F913F912F910F9008
S11315B00FBE0F901F9018951F920F920FB60F92A7
S11315C011242F933F934F935F936F937F938F9344
S11315D09F93AF93BF93EF93FF93809184028F5FA8
S11315E08093840280918402853088F01092840272
S11315F083E463E00E949F0483E464E00E949F0408
S113160060E070E0CB010E94750C0E946E0CFF91AB
S1131610EF91BF91AF919F918F917F916F915F9166
S11316204F913F912F910F900FBE0F901F901895DF
S11316303F924F925F926F927F928F929F92AF925E
S1131640BF92CF92DF92EF92FF920F931F93CF93AB
S1131650DF93C82F8FEF809326020FEF1FEFDFEF8A
S11316600F2EF9E38F2EF2E09F2EF02D0F2EF3E1D3
S11316705F2EF02D0F2EFBE46F2EF2E07F2EF02D67
S11316800F2EF5E14F2EF02D0F2EF4E13F2EF02D0D
S11316900F2EF1E6AF2EF2E0BF2EF02D0F2EF5E661
S11316A0EF2EF2E0FF2EF02D0F2EF6E7CF2EF2E014
S11316B0DF2EF02DC53019F1C63030F4C33059F0A7
S11316C0C43009F041C011C0C73061F1C73000F126
S11316D0C930D1F530C00E946C0487E292E00E94C8
S11316E05D0401E311E2D1E12FC00E946C0480E3A8
S11316F092E00E945D0402E312E2D2E125C00E945E
S11317006C04C4010E945D0403E313E2D52D1CC0E4
S11317100E946C0482E492E00E945D0404E314E2FB
S1131720D32D12C00E946C04C3010E945D0405E322
S113173015E2D42D09C00E946C0481E592E00E9458
S11317405D0406E316E2D6E18D2F0E942E0C8FE78E
S113175099EAA3E081509040A040E1F700C0000066
S11317608FEF0E942E0C813029F48EE592E00E94C6
S11317705D0405C0882319F4C5010E945D0482E05C
S113178061E00E947604C7010E945D040E94C90CB6
S1131790809326028F3FD1F38FEF91EEA4E0815026
S11317A09040A040E1F700C0000080912602813300
S11317B021F4812F0E942E0C1AC0823321F4802F31
S11317C00E942E0C14C0833321F481E080932502FF
S11317D00EC00E946C04C6010E945D048FEF94E366
S11317E0ACE081509040A040E1F700C0000080913F
S11317F026028153833008F05DCFDF91CF911F9192
S11318000F91FF90EF90DF90CF90BF90AF909F909B
S11318108F907F906F905F904F903F90089582E4F7
S113182064E041E00E94490082E465E041E00E94F6
S1131830490082E467E041E00E9449006C9A689A9A
S11318406E9A82E464E041E00E94DA0008956E9AA0
S113185082E466E041E00E9449000895CF93C82FD6
S113186082E464E040E00E94DA00CFB9779BFECFC7
S11318708FB1CF9108958FB9779BFECF8FB1089523
S113188083B78E7F83BF83B78D7F83BF83B78B7FFF
S113189083BF08958EE48CBF83B7886083BF83B70A
S11318A08F7B83BF83B7816083BF83B7846083BF2B
S11318B083B78D7F83BF789489B7826089BF089589
S11318C082B5886082BD85B5846085BD85B581603B
S11318D085BD789489B7806489BF089585B58B7F69
S11318E085BD85B58E7F85BD08958D9A2EB5206101
S11318F02EBD2EB528602EBD2FB522602FBD21E64A
S11319003BE046EB5BE30E94C80D20E030E040EC96
S11319105FE30E94E70C20E030E04AE754E40E94D1
S1131920C80D0E944B0DDC01CB019BBD8ABD8FE12C
S11319309EE497BD86BD8EB582608EBD8FB58068EE
S11319408FBD0895DC01CB01880F991FAA1FBB1F0F
S1131950880F991FAA1FBB1F9C01AD01220F331FC3
S1131960441F551F220F331F441F551F60E072E1AF
S11319708AE790E00E942B0E2150304030BD29B9F7
S1131980539A549A86E880BD08955D9BFECF8CB926
S113199008955F9BFECF8CB190E00895CF93DF93C1
S11319A0EC018881882379F021960E94C50C8FEF81
S11319B090E7A2E081509040A040E1F700C0000011
S11319C08991882391F7DF91CF9108955058BB27CF
S11319D0AA270ED0A3C094D030F099D020F031F4CF
S11319E09F3F11F41EF489C00EF4E095E7FB7FC01D
S11319F0E92FA5D080F3BA17620773078407950708
S1131A0018F071F49EF5BDC00EF4E0950B2EBA2FBC
S1131A10A02D0B01B90190010C01CA01A0011124F0
S1131A20FF27591B99F0593F50F4503E68F11A169C
S1131A30F040A22F232F342F4427585FF3CF46952D
S1131A4037952795A795F0405395C9F77EF41F164F
S1131A50BA0B620B730B840BBAF09150A1F0FF0F19
S1131A60BB1F661F771F881FC2F70EC0BA0F621F05
S1131A70731F841F48F4879577956795B795F795F5
S1131A809E3F08F0B3CF9395880F08F09927EE0F87
S1131A909795879508955BD088F09F5790F0B92F5C
S1131AA09927B751A0F0D1F0660F771F881F991FAF
S1131AB01AF0BA95C9F712C0B13081F062D0B1E022
S1131AC008955FC0672F782F8827B85F39F0B93F32
S1131AD0CCF3869577956795B395D9F73EF49095B1
S1131AE08095709561957F4F8F4F9F4F089597F91B
S1131AF09F6780E870E060E008959FEF80EC0895B0
S1131B0000240A94161617061806090608950024D8
S1131B100A9412161306140605060895092E039452
S1131B20000C11F4882352F0BB0F40F4BF2B11F4C6
S1131B3060FF04C06F5F7F4F8F4F9F4F089557FD25
S1131B409058440F551F59F05F3F71F04795880F27
S1131B5097FB991F61F09F3F79F0879508951216BE
S1131B6013061406551FF2CF4695F1DF08C016166A
S1131B7017061806991FF1CF86957105610508941B
S1131B800895E894BB2766277727CB0197F9089532
S1131B900BD0C4CFB5DF28F0BADF18F0952309F0D5
S1131BA0A6CFABCF1124EECFCADFA0F3959FD1F31C
S1131BB0950F50E0551F629FF001729FBB27F00DF7
S1131BC0B11D639FAA27F00DB11DAA1F649F66274C
S1131BD0B00DA11D661F829F2227B00DA11D621F9B
S1131BE0739FB00DA11D621F839FA00D611D221F55
S1131BF0749F3327A00D611D231F849F600D211D39
S1131C00822F762F6A2F11249F5750408AF0E1F0DB
S1131C1088234AF0EE0FFF1FBB1F661F771F881F24
S1131C2091505040A9F79E3F510570F060CFAACF64
S1131C305F3FECF3983EDCF3869577956795B7950F
S1131C40F795E7959F5FC1F7FE2B880F911D969539
S1131C50879597F90895A1E21A2EAA1BBB1BFD01D3
S1131C600DC0AA1FBB1FEE1FFF1FA217B307E40777
S1131C70F50720F0A21BB30BE40BF50B661F771FCF
S1131C80881F991F1A9469F76095709580959095AF
S1111C909B01AC01BD01CF010895F894FFCF74
S1131C9E57656C636F6D6520546F20536D6172745C
S1131CAE00486F6D652053797374656D004C6F67D2
S1131CBE696E20466F720046697273742054696DA2
S1131CCE65005365742041646D696E2050617373B1
S1131CDE0041646D696E20706173733A00536574CC
S1131CEE204775657374205061737300477565736F
S1131CFE7420506173733A0050617373776F72641A
S1131D0E2073617665640053657373696F6E205436
S1131D1E696D654F7574004C6F67696E20426C6F08
S1131D2E636B6564005761697420352053656300E5
S1131D3E53656C656374204D6F64653A00312D41B3
S1131D4E646D696E2020322D477565737400577269
S1131D5E6F6E6720496E707574210041646D696EF3
S1131D6E204D6F64650041646D696E20506173731C
S1131D7E3A0052696768742070617373776F726486
S1131D8E0057726F6E672070617373776F726400A1
S1131D9E547269657320416C6C6F77656420004ED4
S1131DAE6F20547269657320416C6C6F77656400A3
S1131DBE2020424C4F434B204D4F44450047756500
S1131DCE7374204D6F646500312D526F6F6D312029
S1131DDE322D526F6F6D3200332D526F6F6D332073
S1131DEE342D4D6F726500332D526F6F6D33203469
S1131DFE2D526F6F6D3400312D526F6F6D34203252
S1131E0E2D545600332D41697220436F6E642E207B
S1131E1E342D52657400312D5365742054656D70E4
S1131E2E7265617475726500322D436F6E74726FD4
S1131E3E6C20332D526574005365742054656D7097
S1131E4E2E3D5F5F0054656D7072656174757265C9
S1131E5E207365740001FF526F6F6D3120533A0089
S1131E6E526F6F6D3220533A00526F6F6D332053A1
S1131E7E3A00526F6F6D3420533A00545620533A41
S1131E8E0041697220436F6E642E20533A004F4E08
S1131E9E004F464600312D4F4E20322D4F464620E0
S1131EAE332D5265740057726F6E6720496E7075CC
S1071EBE7421000087
S9030000FC
